:10000000EBEF01F00C52656164792E2E2E0A000090
:10001000EA6A0B0EE96EEF500DE0060E016E006A03
:10002000002EFED7012EFBD77B0E006E002EFED7D2
:10003000EF2EF3D7120010B002D08C9801D08C882C
:10004000959810B202D08C9A01D08C8A959A10B4EF
:1000500002D08C9C01D08C8C959C10B602D08C9ECA
:1000600001D08C8E959E00008C849594020E006EBB
:10007000002EFED700D000008C9495941200116AD7
:100080009588000E83B8010E1112958A000E83BA6E
:10009000010E006ED890003600501112958C000EA3
:1000A00083BC010E006E00360036FC0E00160050B8
:1000B0001112958E000E83BE010E006E00360036C2
:1000C0000036F80E00160050111211C001F0120097
:1000D0009588958A958C958E8C82959200008C845B
:1000E00095940000CCDF01C010F08C949594000032
:1000F0008C84959400D000D00000C1DF01C00FF0C7
:100100008C9495949598959A959C959E1038006E30
:10011000F00E001600500F10016E95EF00F0959450
:10012000959095928C909590D3D701C00FF001BE19
:10013000FBD70D5202E18C9001D08C80959000008D
:100140008C92959200008C9495940E380F6E0F0E41
:100150000F160FC010F06FDF0E500F0B0F6E106EEA
:100160006ADF1200280E076E0C0E086E010E096E73
:10017000060E0A6E8C9495948C9095908C92959224
:100180009598959A959C959E9594959095920F0E1D
:100190000B6E3EDF010E066E0650030808E3030EE9
:1001A000106E49DF050E0B6E33DF062AF5D7020EFF
:1001B000106E41DF050E0B6E2BDF066A065003083A
:1001C0000FE3036A0650070FE96E000E0320EA6E84
:1001D000EFCF0BF00D6A0BC00EF0A1DF062AEED7B1
:1001E000F4EF01F00A2C01D003D0400E0B6E01D0C9
:1001F0000B6A010E095C0B260B5080090C6E0D6A10
:100200000E6E8DDF12000850070A07E00B0A0AE0A5
:10021000060A10E0020A14E018D0010E096E0A6EF8
:10022000E1DF18D00D6A010E0E6E79DF020E0B6E43
:10023000EFDE10D0010E096E020E0A6ED3DF0AD077
:100240000D6A100E0E6E6BDF05D0010E0D6E08C02C
:100250000EF065DF12000900F5520CE0F6CF06F053
:10026000F7CF07F0F5CF08F0CEDF06C0F6FF07C0E6
:10027000F7FFF1D7F9EF01F093968A9693948A8469
:1002800093928A8293908A8081BE07D0140E0B6E5F
:10029000BFDE310E016E9DD01AD081BC07D0140E86
:1002A0000B6EB6DE320E016E94D011D081BA07D03B
:1002B000140E0B6EADDE330E016E8BD008D081B8FC
:1002C00006D0140E0B6EA4DE340E016E82D093960F
:1002D0008A8693948A9493928A8293908A8081BE2C
:1002E00007D0140E0B6E94DE350E016E72D01AD04C
:1002F00081BC07D0140E0B6E8BDE360E016E69D0FA
:1003000011D081BA07D0140E0B6E82DE370E016E4B
:1003100060D008D081B806D0140E0B6E79DE380E8E
:10032000016E57D093968A8693948A8493928A9288
:1003300093908A8081BE07D0140E0B6E69DE390E51
:10034000016E47D01AD081BC07D0140E0B6E60DE50
:10035000300E016E3ED011D081BA07D0140E0B6E54
:1003600057DE2A0E016E35D008D081B806D0140EA3
:100370000B6E4EDE2B0E016E2CD093968A869394D4
:100380008A8493928A8293908A9081BE07D0140EB9
:100390000B6E3EDE410E016E1CD01AD081BC07D020
:1003A000140E0B6E35DE420E016E13D011D081BAE1
:1003B00007D0140E0B6E2CDE430E016E0AD008D04F
:1003C00081B806D0140E0B6E23DE440E016E01D0F0
:1003D00053D7FAEF01F0F86AD09EC150C00B0F0955
:1003E000C16E070EB46EBED6040EF66E000EF76E2A
:1003F00032D742D701C005F0055208E0010E096E60
:10040000020E0A6EEFDE05C008F0FDDEF2D7030033
:020000040030CA
:0E00000004CC2E0E0083A1000FC00FE00F40B5
:00000001FF
;PIC18F4550
;CRC=A8BE  CREATED="10-Feb-18 14:40"
