:100000003DEF01F00C4269736D696C6C61680A0028
:10001000EA6A0A0EE96EEF500DE0060E016E006A04
:10002000002EFED7012EFBD77B0E006E002EFED7D2
:10003000EF2EF3D712000FB002D08C9801D08C882D
:1000400095980FB202D08C9A01D08C8A959A0FB4F1
:1000500002D08C9C01D08C8C959C0FB602D08C9ECB
:1000600001D08C8E959E00008C849594020E006EBB
:10007000002EFED700D000008C9495941200106AD8
:100080009588000E83B8010E1012958A000E83BA6F
:10009000010E006ED890003600501012958C000EA4
:1000A00083BC010E006E00360036FC0E00160050B8
:1000B0001012958E000E83BE010E006E00360036C3
:1000C0000036F80E00160050101210C001F0120099
:1000D0009588958A958C958E8C82959200008C845B
:1000E00095940000CCDF01C00FF08C949594000033
:1000F0008C84959400D000D00000C1DF01C00EF0C8
:100100008C9495949598959A959C959E0F38006E31
:10011000F00E001600500E10016E95EF00F0959451
:10012000959095928C909590D3D701C00EF001BE1A
:10013000FBD70C5202E18C9001D08C80959000008E
:100140008C92959200008C9495940D380E6E0F0E43
:100150000E160EC00FF06FDF0D500F0B0E6E0F6EF0
:100160006ADF1200280E066E0C0E076E010E086E76
:10017000060E096E8C9495948C9095908C92959225
:100180009598959A959C959E9594959095920F0E1D
:100190000A6E3EDF010E056E0550030808E3030EEC
:1001A0000F6E49DF050E0A6E33DF052AF5D7020E02
:1001B0000F6E41DF050E0A6E2BDF056A055003083E
:1001C0000FE3036A0550060FE96E000E0320EA6E86
:1001D000EFCF0AF00C6A0AC00DF0A1DF052AEED7B6
:1001E00046EF01F0092C01D003D0400E0A6E01D079
:1001F0000A6A010E085C0A260A5080090B6E0C6A16
:100200000D6E8DDF12000750070A07E00B0A0AE0A7
:10021000060A10E0020A14E018D0010E086E096EFA
:10022000E1DF18D00C6A010E0D6E79DF020E0A6E46
:10023000EFDE10D0010E086E020E096ED3DF0AD079
:100240000C6A100E0D6E6BDF05D0010E0C6E07C030
:100250000DF065DF36EF01F00900F5520CE0F6CF46
:1002600005F0F7CF06F0F5CF07F0CDD705C0F6FFC4
:1002700006C0F7FFF1D74BEF01F0F86AD09EC150EE
:10028000C00B0F09C16E070EB46E6CD7040EF66E6C
:0A029000000EF76EE1D7FFD7030060
:020000040030CA
:0E00000004CC2E0E0083A1000FC00FE00F40B5
:00000001FF
;PIC18F4550
;CRC=0D93  CREATED="10-Feb-18 14:42"
