:1000000035EF00F01750070B006E1730016E01320C
:1000100001321F0E011601501924E96E000E1A203C
:10002000EA6E016A012A002A01D00136002EFDD7AE
:10003000185203E00150EF1203D0011E0150EF16D9
:100040001200EA6A160EE96EEF500DE0060E016E20
:10005000006A002EFED7012EFBD77B0E006E002E0D
:10006000FED7EF2EF3D79AEF00F0F86AD09EC1507A
:10007000C00B0F09C16E070EB46E110E046E1C0E7C
:10008000056E190E066E1E0E076E086A180E096EB2
:10009000010E0A6E040E0B6E1D0E0C6E020E0D6E1E
:1000A000030E0E6E100E0F6E050E106E1F0E116EEB
:1000B0001B0E126E1A0E136E146A145007083EE3DC
:1000C000036A14500C0FE96E000E0320EA6EEFCFA6
:1000D00016F016C017F0186A0F0E1A6E890E196EF8
:1000E00091DF16C017F0186A0F0E1A6E920E196E75
:1000F00089DF156A155007081FE3036A1550040FBE
:10010000E96E000E0320EA6EEFCF16F016C017F06E
:10011000010E186E0F0E1A6E890E196E73DF16C05F
:1001200017F0186A0F0E1A6E920E196E6BDF640EBE
:10013000166E87D7152ADED7142ABFD7BDD703007E
:020000040030CA
:0E00000004CC2E0E0083A1000FC00FE00F40B5
:00000001FF
;PIC18F4550
;CRC=745B  CREATED="10-Feb-18 14:35"
