:0400000076EF00F0A7
:08000800046ED8CF05F0E0CF33
:1000100006F00001E9CF0CF0EACF07F0E1CF08F0DD
:10002000E2CF09F0D9CF0AF0DACF0BF0F3CF12F01C
:10003000F4CF13F0FACF14F000C00EF001C00FF0AF
:1000400002C010F003C011F0F2A82AEF00F0F2B2E3
:1000500064EF00F0F0A630EF00F0F0B06DEF00F0CC
:100060000EC000F00FC001F010C002F011C003F08C
:100070000CC0E9FF07C0EAFF078E08C0E1FF09C016
:10008000E2FF0AC0D9FF0BC0DAFF12C0F3FF13C0B2
:10009000F4FF14C0FAFF045006C0E0FF05C0D8FF0B
:1000A0001000EA6A160EE96EEF500DE0060E016EC2
:1000B000006A002EFED7012EFBD77B0E006E002EAD
:1000C000FED7EF2EF3D71200959C8C7C0A0E166E8D
:1000D000E8DFF090F29230EF00F0959E8C7E0A0EF1
:1000E000166EDFDFF092F09030EF00F0F86AD09EED
:1000F000078EC150C00B0F09C16E070EB46EC66AE1
:10010000C00EF212F19CF19AF292F090F288F08611
:04011000FFD7030012
:020000040030CA
:0E00000004CC2E0E0083A1000FC00FE00F40B5
:00000001FF
;PIC18F4550
;CRC=6769  CREATED="10-Feb-18 14:37"
