:10000000B1EF01F04144432044656D6F2E2E0A008C
:100010000C5241323D254C750A5241333D254C75F9
:100020000000EA6A130EE96EEF500DE0060E016E55
:10003000006A002EFED7012EFBD77B0E006E002E2D
:10004000FED7EF2EF3D712001AB002D08C9801D051
:100050008C8895981AB202D08C9A01D08C8A959A85
:100060001AB402D08C9C01D08C8C959C1AB602D00C
:100070008C9E01D08C8E959E00008C849594020EEF
:10008000006E002EFED700D000008C9495941200D4
:100090001B6A9588000E83B8010E1B12958A000E0C
:1000A00083BA010E006ED890003600501B12958C5A
:1000B000000E83BC010E006E00360036FC0E0016EA
:1000C00000501B12958E000E83BE010E006E00368E
:1000D00000360036F80E001600501B121BC001F04F
:1000E00012009588958A958C958E8C829592000049
:1000F0008C8495940000CCDF01C01AF08C94959408
:1001000000008C84959400D000D00000C1DF01C0B5
:1001100019F08C9495949598959A959C959E1A387B
:10012000006EF00E001600501910016E9EEF00F0E8
:100130009594959095928C909590D3D701C019F095
:1001400001BEFBD7175202E18C9001D08C809590B4
:1001500000008C92959200008C9495941838196E3A
:100160000F0E191619C01AF06FDF18500F0B196E09
:100170001A6E6ADF1200280E0A6E0C0E0B6E010E4C
:100180000C6E060E0D6E8C9495948C9095908C92BE
:1001900095929598959A959C959E95949590959203
:1001A0000F0E136E3EDF010E096E0950030808E3BF
:1001B000030E1A6E49DF050E136E33DF092AF5D7D9
:1001C000020E1A6E41DF050E136E2BDF096A09500D
:1001D00003080FE3036A09500A0FE96E000E0320BB
:1001E000EA6EEFCF0EF0176A0EC018F0A1DF092AF1
:1001F000EED7C4EF01F0142C01D003D0400E156EE1
:1002000001D0156A010E135C152615508009166E73
:10021000176A186E8DDF12001250070A07E00B0AEA
:100220000AE0060A10E0020A14E018D0010E136E6C
:10023000146EE1DF18D0176A010E186E79DF020E16
:10024000136EEFDE10D0010E136E020E146ED3DFAC
:100250000AD0176A100E186E6BDF05D0010E176EEC
:1002600012C018F065DF12000900F5520CE0F6CF5D
:1002700009F0F7CF0AF0F5CF12F0CEDF09C0F6FF94
:100280000AC0F7FFF1D7C9EF01F00900F6CF0AF075
:10029000F7CF0BF0F5CF12F0BFDF0AC0F6FF0BC0AF
:1002A000F7FF092EF2D71200EACF11F0E9CF10F0D4
:1002B0000A38F0090C6E0C26E20F0D6E320F0F6E2D
:1002C0000A500F0B0D260D260F26E90F0E6E0E2677
:1002D0000E2609380F0B0E260F260E360F360F1E70
:1002E0000F3609500F0B0F260C36070E0B6E0A0E39
:1002F0000E060F26FDE30D060E26FDE30C060D2669
:10030000FDE30B060C26FDE3EA6A0B0EE96E070E11
:100310001014109CE926000EEA22E9500F0803E1B0
:10032000EA5201E1108CEF50006E08E110BC06D0DB
:1003300010B813D010B602D0200E03D0108610983B
:10034000300E0026EACF0AF0E9CF09F000C012F023
:1003500063DF0AC0EAFF09C0E9FFEE5010ACDDD749
:100360001200F86AD09EC150C00B0F09C16E070E73
:10037000B46EC050C00B0109C06EC08EC280C150A7
:10038000C00B0D09C16EF7D6040EF66E000EF76EA7
:100390006BD7000E016EC250C30B0110C26E100E5F
:1003A000006E002EFED70000C282C2B2FED7C3CFBD
:1003B00005F0C4CF06F0040E016EC250C30B01104D
:1003C000C26E100E006E002EFED70000C282C2B2B6
:1003D000FED7C3CF07F0C4CF08F0100EF66E000EA4
:1003E000F76E050E096E51DF100EE96E06C00AF0B9
:1003F00005C009F059DF180EF66E000EF76E050EF7
:10040000096E43DF100EE96E08C00AF007C009F05C
:100410004BDF020E096EFA0E136E03DE092EFBD7B8
:04042000B8D7030046
:020000040030CA
:0E00000004CC2E0E0083A1000FC00FE00F40B5
:00000001FF
;PIC18F4550
;CRC=3C36  CREATED="10-Feb-18 14:43"
