:1000000016EF00F0EA6A080EE96EEF500DE0020EFE
:10001000016E006A002EFED7012EFBD7970E006EF0
:10002000002EFED7EF2EF3D73DEF00F0F86AD09EFA
:10003000700ED36ED350C150C00B0F09C16E070EA6
:10004000B46EFF0E956E056A066A066A06500708CA
:1000500018E3010E056E0650016E04E0D8900536D7
:10006000012EFCD705C007F0071E956A07C08CFF5C
:10007000020E076EFA0E086EC5D7072EFBD7062AAA
:06008000E5D7E3D7030001
:020000040030CA
:0E0000003FC83E1E0007A1000FC00FE00F40DA
:00000001FF
;PIC18F4550
;CRC=2AC8  CREATED="10-Feb-18 14:47"
