:100000005DEF03F00C2020205254432044454D4F17
:100010000A000C446174653A20253032642F253083
:1000200032642F253032640A000054696D653A202D
:10003000253032643A253032643A2530326400008B
:10004000EA6A120EE96EEF500DE0060E016E006ACC
:10005000002EFED7012EFBD77B0E006E002EFED7A2
:10006000EF2EF3D7120019B002D08C9801D08C88F3
:10007000959819B202D08C9A01D08C8A959A19B4AD
:1000800002D08C9C01D08C8C959C19B602D08C9E91
:1000900001D08C8E959E00008C849594020E006E8B
:1000A000002EFED700D000008C94959412001A6A9E
:1000B0009588000E83B8010E1A12958A000E83BA35
:1000C000010E006ED890003600501A12958C000E6A
:1000D00083BC010E006E00360036FC0E0016005088
:1000E0001A12958E000E83BE010E006E0036003689
:1000F0000036F80E001600501A121AC001F0120055
:100100009588958A958C958E8C82959200008C842A
:1001100095940000CCDF01C019F08C9495940000F8
:100120008C84959400D000D00000C1DF01C018F08D
:100130008C9495949598959A959C959E1938006EF7
:10014000F00E001600501810016EADEF00F09594FF
:10015000959095928C909590D3D701C018F001BEE0
:10016000FBD7165202E18C9001D08C809590000054
:100170008C92959200008C9495941738186E0F0EFF
:10018000181618C019F06FDF17500F0B186E196E84
:100190006ADF1200280E0C6E0C0E0D6E010E0E6E34
:1001A000060E0F6E8C9495948C9095908C929592EF
:1001B0009598959A959C959E9594959095920F0EED
:1001C000126E3EDF010E0B6E0B50030808E3030EA8
:1001D000196E49DF050E126E33DF0B2AF5D7020EBA
:1001E000196E41DF050E126E2BDF0B6A0B500308F0
:1001F0000FE3036A0B500C0FE96E000E0320EA6E4A
:10020000EFCF10F0166A10C017F0A1DF0B2AEED75F
:1002100066EF03F0132C01D003D0400E146E01D012
:10022000146A010E125C142614508009156E166AA9
:10023000176E8DDF12001150070A07E00B0A0AE063
:10024000060A10E0020A14E018D0010E126E136EB6
:10025000E1DF18D0166A010E176E79DF020E126EFA
:10026000EFDE10D0010E126E020E136ED3DF0AD035
:10027000166A100E176E6BDF05D0010E166E11C0D8
:1002800017F065DF12000900F5520CE0F6CF0BF015
:10029000F7CF0CF0F5CF11F0CEDF0BC0F6FF0CC09E
:1002A000F7FFF1D76BEF03F0080E016E050E006E3D
:1002B000002EFED78A929392060E006E002EFED775
:1002C00013368A90D8B09380D8A09390938281A25D
:1002D000FED7012EEBD7050E006E002EFED78A92B8
:1002E000939200009380060E006E002EFED7060E3D
:1002F000006E002EFED7938281A2FED7016A060E01
:10030000006E002EFED781B001808A9293928A906F
:1003100093901200080E106E00C011F09380060E2C
:10032000006E002EFED7938281A2FED781B0D880C6
:1003300081A0D8900136050E006E002EFED7939254
:100340008A92102EEBD79380060E006E002EFED7F9
:100350008A901150D8A493900000938281A2FED776
:10036000050E006E002EFED78A929392060E006E46
:10037000002EFED78A909390120010C011F0D890F2
:100380001132780E11161130006E00323F0E001639
:1003900000501124126E10500F0B1224016E120027
:1003A00012C013F0146A1350090805E20A0E135E16
:1003B000100E142603D01350142601D0F4D714C005
:1003C00001F012000B6A9380050E006E002EFED71E
:1003D0009382060E006E002EFED78A909390050E33
:1003E000006E002EFED78A929392D00E136E5CDFC1
:1003F000136A5ADF9380050E006E002EFED793829B
:10040000060E006E002EFED781A2FED78A90939032
:10041000050E006E002EFED78A929392D10E136EB7
:1004200043DF006A77DF01C00CF001C010F0A5DFE8
:1004300001C00BF093900000938281A2FED7050EBD
:10044000006E002EFED700D000009380050E006ED7
:10045000002EFED70B9E040E006E002EFED700D09D
:100460009380050E006E002EFED79382060E006E5E
:10047000002EFED78A909390050E006E002EFED7B8
:100480008A929392D00E136E0FDF136A0DDF0BC0AA
:1004900012F086DF01C00CF001C013F005DF93807D
:1004A000050E006E002EFED79382060E006E002E03
:1004B000FED781A2FED78A909390050E006E002E83
:1004C000FED78A929392D00E136EEEDE070E136E55
:1004D000EBDE800E136EE8DE93900000938281A223
:1004E000FED7050E006E002EFED700D000009380D0
:1004F000050E006E002EFED773EF03F0119E3F0E27
:100500000F169380050E006E002EFED79382060E06
:10051000006E002EFED78A909390050E006E002E7E
:10052000FED78A929392D00E136EBEDE136ABCDEA3
:1005300011C012F035DF01C012F001C013F0B4DEBB
:1005400010C012F02DDF01C012F001C013F0ACDEBC
:100550000FC012F025DF01C012F001C013F0A4DEBD
:100560000EC012F01DDF01C012F001C013F09CDEBE
:100570000BC012F015DF01C012F001C013F094DEC1
:100580000CC012F00DDF01C012F001C013F08CDEC0
:100590000DC012F005DF01C012F001C013F084DEBF
:1005A000800E136E81DE93900000938281A2FED7AD
:1005B000050E006E002EFED700D000009380050EC1
:1005C000006E002EFED782EF03F00900F6CF0CF08C
:1005D000F7CF0DF0F5CF11F02EDE0CC0F6FF0DC0F9
:1005E000F7FF0B2EF2D712001250016A115C03E2E2
:1005F00011C000F00CD0006A080E136E11360036E0
:100600001250005CD8B0006E0136132EF7D71200DE
:10061000200E0CA8300E0D6E0BC000F00BAE08D0F3
:10062000001E002A00C00BF02D0E0D6E0C8E0C80EB
:1006300001500BC011F0640E126ED6DF00C00BF03B
:10064000300E01240E6E0BC011F00A0E126ECCDFBC
:10065000300E0024106E300E01240F6E0DC000F01D
:10066000300E0E5C04E00C820CBE0C8412D00CB474
:1006700010D00DC00EF00CB204D0300E0F5C04E0B0
:100680000C800CBE0C8205D0D8A40C80D8B40EC04F
:100690000FF00CB405D00CB206D00CB007D009D0C6
:1006A0000DC011F0C8DD0EC011F0C5DD0FC011F096
:1006B000C2DD10C011F0BFDD1200F86AD09EC1503B
:1006C000C00B0F09C16E070EB46E64D5040EF66E32
:1006D000000EF76ED8D5040E0B6EFA0E126EB0DC5B
:1006E0000B2EFBD76FD6050E0B6E070E0C6E110E80
:1006F0000D6E030E0E6E120E0F6E140E106E2D0E7A
:10070000116EFCD69380050E006E002EFED79382EC
:10071000060E006E002EFED78A909390050E006E96
:10072000002EFED78A929392D00E136EBDDD030E7B
:10073000136EBADD9380050E006E002EFED79382F5
:10074000060E006E002EFED781A2FED78A909390EF
:10075000050E006E002EFED78A929392D10E136E74
:10076000A3DD010E006ED6DD01507F0B0B6E106E07
:1007700004DE01C00AF0010E006ECCDD01503F0B1B
:100780000B6E106EFADD01C007F0010E006EC2DDC7
:1007900001501F0B0B6E106EF0DD01C008F0006AF7
:1007A000B9DD01C00BF001C010F0E7DD01C009F0B8
:1007B00093900000938281A2FED7050E006E002E5A
:1007C000FED700D000009380050E006E002EFED7ED
:1007D0009380050E006E002EFED79382060E006EEB
:1007E000002EFED78A909390050E006E002EFED745
:1007F0008A929392D00E136E57DD136A55DD938063
:10080000050E006E002EFED79382060E006E002E9F
:10081000FED781A2FED78A909390050E006E002E1F
:10082000FED78A929392D10E136E3EDD010E006EBA
:1008300071DD01507F0B0B6E106E9FDD01C004F067
:10084000010E006E67DD01507F0B0B6E106E95DDA3
:1008500001C005F0006A5EDD01503F0B0B6E106EAB
:100860008CDD01C006F093900000938281A2FED738
:10087000050E006E002EFED700D000009380050EFE
:10088000006E002EFED7120EF66E000EF76E070EEB
:100890000B6E9BDE07C00BF0010E0C6EB9DE2F0E47
:1008A000116EC9DC08C00BF0010E0C6EB1DE2F0E0C
:1008B000116EC1DC09C00BF0010E0C6EA9DE0A0E30
:1008C000116EB9DC2A0EF66E000EF76E060E0B6E78
:1008D0007CDE06C00BF0010E0C6E9ADE3A0E116E35
:1008E000AADC05C00BF0010E0C6E92DE3A0E116E02
:1008F000A2DC04C00BF0010E0C6E8ADE040E0B6E3F
:10090000FA0E126E20EC00F00B2EFAD7FBD6030085
:020000040030CA
:0E00000004CC2E0E0083A1000FC00FE00F40B5
:00000001FF
;PIC18F4550
;CRC=17F6  CREATED="10-Feb-18 14:48"
