:1000000015EF00F0EA6A060EE96EEF500DE0060EFD
:10001000016E006A002EFED7012EFBD77B0E006E0C
:10002000002EFED7EF2EF3D71200F86AD09EC150F3
:10003000C00B0F09C16E070EB46E9294898495901F
:100040008C90020E056EFA0E066EDCDF052EFBD7D5
:1000500095928C92020E056EFA0E066ED3DF052E77
:10006000FBD795948C94020E056EFA0E066ECADFCD
:10007000052EFBD795968C96020E056EFA0E066E2F
:10008000C1DF052EFBD795988C98020E056EFA0EEF
:10009000066EB8DF052EFBD7959A8C9A020E056E78
:1000A000FA0E066EAFDF052EFBD7959C8C9C020ED8
:1000B000056EFA0E066EA6DF052EFBD7959E8C9E6A
:1000C000020E056EFA0E066E9DDF052EFBD795908B
:1000D0008C8095928C8295948C8495968C8695983C
:1000E0008C88959A8C8A959C8C8C959E8C8E040E0F
:0E00F000056EFA0E066E86DF052EFBD70300A6
:020000040030CA
:0E00000004CC2E0E0083A1000FC00FE00F40B5
:00000001FF
;PIC18F4550
;CRC=78C1  CREATED="10-Feb-18 14:54"
