:040000005AEF00F0C3
:08000800046ED8CF05F0E0CF33
:1000100006F00001E9CF0CF0EACF07F0E1CF08F0DD
:10002000E2CF09F0D9CF0AF0DACF0BF0F3CF12F01C
:10003000F4CF13F0FACF14F0F5CF15F0F6CF16F099
:10004000F7CF17F000C00EF001C00FF002C010F0A3
:1000500003C011F09DA230EF00F09EB257EF00F008
:100060000EC000F00FC001F010C002F011C003F08C
:100070000CC0E9FF07C0EAFF078E08C0E1FF09C016
:10008000E2FF0AC0D9FF0BC0DAFF12C0F3FF13C0B2
:10009000F4FF14C0FAFF15C0F5FF16C0F6FF17C035
:1000A000F7FF045006C0E0FF05C0D8FF10009E9285
:1000B00030EF00F0F86AD09E078EC150C00B0F09D8
:1000C000C16E280E0609CA6E080ECB6E94948B94EE
:1000D0000C0EBD6E020EBE6EBD50CF0B2009BD6E64
:0A00E0009D82C00EF212FFD703004C
:020000040030CA
:0E00000004CC2E0E0082A100034003600340DA
:00000001FF
;PIC18F4450
;CRC=2B77  CREATED="06-Aug-17 20:39"
