:100000001BEF00F0486954686572650048695468E0
:10001000657265000900F5520DE0F6CF06F0F7CFE6
:1000200007F0F5509EA8FED7AD6E06C0F6FF07C0DC
:10003000F7FFF0D71200F86AD09EB886080EAF6EB0
:10004000020EB06EA60EAC6E900EAB6E056A046A20
:10005000C150C00B0F09C16E070EB46EB886080EF2
:10006000AF6E020EB06EA60EAC6E900EAB6E040EAE
:10007000F66E000EF76ECEDF0C0EF66E000EF76E0B
:06008000C9DFFAD70300FE
:020000040030CA
:0E00000004CC2E0E0083A1000FC00FE00F40B5
:00000001FF
;PIC18F4550
;CRC=0DD0  CREATED="03-Aug-17 18:17"
